:020000040800F2
:100000000000022081800008890100089501000895
:100010009D010008A5010008AD01000800000000D6
:10002000000000000000000000000000811900082E
:10003000B501000800000000791B0008C91B00087A
:10004000CD800008CD800008CD800008CD8000085C
:10005000CD800008CD800008CD800008CD8000084C
:10006000CD800008CD800008CD800008CD8000083C
:10007000CD800008CD800008CD800008CD8000082C
:10008000CD800008CD800008CD800008CD8000081C
:10009000CD800008CD800008CD800008CD8000080C
:1000A000CD800008CD800008CD800008CD800008FC
:1000B000CD800008CD800008CD800008CD800008EC
:1000C000CD800008CD800008CD800008CD800008DC
:1000D000CD800008CD800008CD80000821150008E3
:1000E000CD800008CD800008CD800008CD800008BC
:1000F000CD800008CD800008CD800008CD800008AC
:10010000CD800008CD800008CD800008CD8000089B
:10011000CD800008CD800008CD800008CD8000088B
:10012000CD800008CD800008CD800008CD8000087B
:10013000CD800008CD800008CD800008CD8000086B
:10014000CD800008CD800008CD800008CD8000085B
:10015000CD800008CD800008CD800008CD8000084B
:10016000CD800008CD800008CD800008CD8000083B
:10017000CD800008CD800008CD800008CD8000082B
:08018000CD800008CD800008CD
:1001880080B400AFBD4680BC704700BF80B400AFEC
:10019800FEE700BF80B400AFFEE700BF80B400AF49
:1001A800FEE700BF80B400AFFEE700BF80B400AF39
:1001B800BD4680BC704700BF80B500AF4FF46053A8
:1001C800C4F202034FF46052C4F20202126842F011
:1001D80001021A604FF46053C4F202034FF00002A8
:1001E8009A604FF46053C4F202034FF46052C4F2B1
:1001F8000202126822F0847222F480321A604FF4EC
:100208006053C4F2020343F21002C2F200425A6081
:100218004FF46053C4F202034FF46052C4F2020276
:10022800126822F480221A604FF46053C4F2020369
:100238004FF00002DA6000F0CFF84FF46D43CEF2D1
:1002480000034FF000629A604FF46D43CEF2000352
:100258004FF46D42CEF20002D2F8882042F47002C8
:10026800C3F8882080BD00BF80B487B000AF4FF0CE
:1002780000033B614FF000037B614FF00203FB601A
:100288004FF00003BB604FF002037B604FF46053F4
:10029800C4F202039B6803F00C033B613B69042B27
:1002A8000DD0082B15D0002B69D140F20003C2F203
:1002B80000034FF41052C0F2F4021A6069E040F2F1
:1002C8000003C2F200034FF49052C0F27A021A609F
:1002D8005FE04FF46053C4F202035B6803F48003E9
:1002E8004FEA9353BB604FF46053C4F202035B6858
:1002F80003F03F037B60BB68002B14D04FF490538E
:10030800C0F27A037A68B3FBF2F24FF46053C4F296
:100318000203596847F6C0730B404FEA931303FB77
:1003280002F37B6113E04FF41053C0F2F4037A68D0
:10033800B3FBF2F24FF46053C4F20203596847F674
:10034800C0730B404FEA931303FB02F37B614FF436
:100358006053C4F202035B6803F440334FEA13436B
:1003680003F101034FEA4303FB607A69FB68B2FBC0
:10037800F3F240F20003C2F200031A6009E040F20F
:100388000003C2F200034FF41052C0F2F4021A60E4
:1003980000BF4FF46053C4F202039B6803F0F003FC
:1003A8004FEA131240F20403C2F200039B5CDBB273
:1003B8003B6140F20003C2F200031A683B6922FA6B
:1003C80003F240F20003C2F200031A6007F11C07AF
:1003D800BD4680BC704700BF80B483B000AF4FF00B
:1003E80000037B604FF000033B604FF46053C4F29E
:1003F80002034FF46052C4F20202126842F48032DF
:100408001A604FF46053C4F202031B6803F400330C
:100418003B607B6803F101037B603B68002B03D1E1
:100428007B68B3F5A06FECD14FF46053C4F20203BC
:100438001B6803F40033002B03D04FF001033B602B
:1004480002E04FF000033B603B68012B40F08280E4
:100458004FF46053C4F202034FF46052C4F2020234
:10046800126C42F080521A644FF4E043C4F2000365
:100478004FF4E042C4F20002126842F480421A606B
:100488004FF46053C4F202034FF46052C4F2020204
:1004980092689A604FF46053C4F202034FF46052BA
:1004A800C4F20202926842F400429A604FF4605328
:1004B800C4F202034FF46052C4F20202926842F49A
:1004C800A0529A604FF46053C4F2020345F2084206
:1004D800C0F240725A604FF46053C4F202034FF402
:1004E8006052C4F20202126842F080721A6000BFC1
:1004F8004FF46053C4F202031B6803F00073002B2F
:10050800F6D04FF47053C4F2020340F205621A6049
:100518004FF46053C4F202034FF46052C4F2020273
:10052800926822F003029A604FF46053C4F2020307
:100538004FF46052C4F20202926842F002029A60DA
:1005480000BF4FF46053C4F202039B6803F00C032E
:10055800082BF6D14FF46053C4F202034FF46052F3
:10056800C4F20202926822F400029A604FF46053C7
:10057800C4F202034FF44052C5F20002C3F88420CB
:100588004FF46053C4F202034FF46052C4F2020203
:10059800126842F080621A6000BF4FF46053C4F2E0
:1005A80002031B6803F00063002BF6D007F10C0769
:1005B800BD4680BC704700BF80B400AFBD4680BC5C
:1005C800704700BF80B500AF01F0C4FAFEE700BF76
:1005D80080B400AFBD4680BC704700BF80B582B014
:1005E80000AF7860396001F0B5FAFEE780B582B0F7
:1005F80000AF786018E07B681B787A6802F1010226
:100608007A604FF49040C4F20000194607F082FA6D
:1006180000BF4FF49040C4F200004FF0400107F0D3
:1006280075FC0346002BF4D07B681B78002BE2D1C5
:1006380007F10807BD4680BD80B582B000AF03460C
:10064800FB714FF40050C4F2010004F061FF00BFD9
:100658004FF40050C4F201004FF0020105F03AFADD
:100668000346002BF4D04FF40050C4F2010004F00C
:10067800F5FF0346184607F10807BD4680BD00BFD1
:1006880080B58CB004AF4FF00003FB774CF25033C9
:10069800BB614FF000037B614FF47043C4F27F539A
:1006A8003B614FF48043C4F29C53FB604FF4C0435A
:1006B800C4F2B843BB604FF40043C4F293337B6089
:1006C80097ED037AD7ED047AC7EE277AC7ED007A5B
:1006D8004FF4165000F01CFE4FF4165000F09AFE2E
:1006E80000F066F94FF40050C4F2010004F010FF66
:1006F8004FF49040C4F2000048F6F401C0F600013F
:1007080000F0C8FF4FF49040C4F2000048F6001112
:10071800C0F6000100F0BEFF4FF49040C4F20000A4
:1007280048F60411C0F6000100F0B4FF4FF4904001
:10073800C4F2000048F60011C0F6000100F0AAFF5C
:100748004FF49040C4F2000048F61C11C0F60001B6
:1007580000F0A0FF4FF49040C4F2000048F60011EA
:10076800C0F6000100F096FF4FF0020300934FF02F
:10077800000301934FF0000302934FF0000303932B
:1007880040F60160C0F6000048F62811C0F60001E6
:100798004FF082024FF0000302F0CCF90346FB77DA
:1007A8004FF0010300934FF0000301934FF0000353
:1007B80002934FF00003039341F2E110C0F60000EA
:1007C80048F64411C0F600014FF082024FF00003D2
:1007D80002F0B0F90346FB7702F098FDFEE700BF90
:1007E80080B485B000AFF860B9607A604FF0FF332D
:1007F800184607F11407BD4680BC704780B584B021
:1008080000AFF860B9607A6007F05EFC03464FF00D
:1008180016021A604FF0FF33184607F11007BD465D
:1008280080BD00BF80B485B000AFF860B9607A6061
:100838004FF00003184607F11407BD4680BC704707
:1008480080B586B000AFF860B9607A604FF00003F9
:100858007B6119E000BF4FF49043C4F200031B888A
:100868009BB203F04003002BF5D07B69BA68D3181C
:100878001B784FF49040C4F20000194607F04AF97B
:100888007B6903F101037B617A697B689A42E1DB4A
:100898007B68184607F11807BD4680BD80B483B051
:1008A80000AF78604FF00003184607F10C07BD460B
:1008B80080BC704780B584B000AF786040F2A00378
:1008C800C2F200031B68002B08D140F2A003C2F259
:1008D800000342F61072C2F201021A6040F2A0034D
:1008E800C2F200031B68FB6040F2A003C2F20003DF
:1008F8001A687B68D2186B469A4208D907F0E4FB5D
:1009080003464FF00C021A604FF0FF330CE040F240
:10091800A003C2F200031A687B68D21840F2A00351
:10092800C2F200031A60FB68184607F11007BD46BB
:1009380080BD00BF80B582B000AF7860396038688C
:100948004FF000014FF03C0207F0DCFB3B684FF42E
:1009580000525A604FF00003184607F10807BD46D9
:1009680080BD00BF80B483B000AF78604FF0010352
:10097800184607F10C07BD4680BC704780B582B0A9
:1009880000AF7860396007F09FFB03464FF016020E
:100998001A604FF0FF33184607F10807BD4680BDBF
:1009A80080B400AF4FF001031846BD4680BC7047C5
:1009B80080B59CB000AF07F15803184604F0A6FBB9
:1009C80007F14803184604F0F5FB4FF480704FF028
:1009D800010106F0DBFB4FF00400C0F240004FF0CD
:1009E800010106F02BFB07F14003184605F050FE05
:1009F8004FF003033B644FF0030387F844304FF094
:100A0800000387F8473007F140034FF40060C4F251
:100A18000200194605F09AFD4FF00003BB644FF43D
:100A28008033FB644FF000033B6507F14803184629
:100A380004F092FB4FF00003BB664FF00003BB6568
:100A48004FF0010387F85D304FF000037B664FF0ED
:100A580000033B664FF0020387F86C304FF0010348
:100A680087F85C3007F158034FF40050C4F20100D6
:100A7800194604F0EFFA46F27040C4F2020005F09D
:100A8800A5F807F10403184605F01AFA4FF0000319
:100A98007B6042F24C03C4F20103BB604FF4006375
:100AA8003B6242F67C63C2F20103FB604FF0000335
:100AB8003B614FF400537B624FF48063FB614FF05E
:100AC8000003BB614FF48073BB624FF40033FB62D9
:100AD8004FF002037B614FF000033B634FF00003CC
:100AE8007B634FF00003BB634FF00003FB6307F128
:100AF800040346F27040C4F20200194605F088F972
:100B080046F27040C4F202004FF010014FF00102AB
:100B180005F096FB46F27040C4F202004FF0010166
:100B280005F014FA4FF40050C4F201004FF00A0126
:100B38004FF001024FF0060304F00CFC4FF4005094
:100B4800C4F201004FF00B014FF002024FF0060310
:100B580004F000FC4FF40050C4F201004FF0010112
:100B680004F0B2FD4FF40050C4F201004FF001014F
:100B780004F08EFD4FF40050C4F201004FF0010163
:100B880004F032FB07F17007BD4680BDB0B48FB0EA
:100B980000AF786048F66413C0F6000307F1080454
:100BA8001D460FCD0FC42B6823604FF000033B6335
:100BB8004FF00003FB624FF00003BB62D7ED017AF0
:100BC800B8EEE77A42F6B863C2F20103D3ED007AD1
:100BD800B4EEE77AF1EE10FA16D84FF07E537B6246
:100BE8004FF000033B62D7ED027A97ED0C7A77EE6F
:100BF800277AC7ED0C7A97ED0B7ADFED7D7A77EEE1
:100C0800277AC7ED0B7ADFE0D7ED017AB8EEE77AFD
:100C180042F6B863C2F20103D3ED047AB4EEE77A80
:100C2800F1EE10FA16DD4FF000037B624FF07E53B1
:100C38003B62D7ED067A97ED0C7A77EE277AC7ED07
:100C48000C7A97ED0B7ADFED6A7A77EE277AC7EDA3
:100C58000B7AB9E04FF0000387F83730AFE097F828
:100C6800373003F1010242F6B863C2F201034FEADA
:100C780082029B1893ED007A97F8372042F6B86302
:100C8800C2F201034FEA82029B18D3ED007A77EE95
:100C9800677A9FED587AC7EE277AC7ED077AD7EDBE
:100CA800017AB8EEE77A97F8372042F6B863C2F2CD
:100CB80001034FEA82029B18D3ED007AB4EEE77A7B
:100CC800F1EE10FA75DDD7ED017AB8EEE77A97F80C
:100CD800373003F1010242F6B863C2F201034FEA6A
:100CE80082029B18D3ED007AB4EEE77AF1EE10FA9F
:100CF8005FD8D7ED017AB8EEE77A97F8373003F185
:100D0800010242F6B863C2F201034FEA82029B185D
:100D1800D3ED007A37EE677AD7ED077A67EE277A50
:100D2800C7ED097A97F8372042F6B863C2F2010393
:100D38004FEA82029B1893ED007AD7ED017AF8EE1C
:100D4800E77A37EE677AD7ED077A67EE277AC7ED45
:100D5800087A97F837304FEA830307F13802D31837
:100D680013ED0C7AD7ED097A27EE277AD7ED0C7AAE
:100D780037EE277A97F8373003F101034FEA8303F8
:100D880007F13802D31853ED0C6AD7ED087A66EEEE
:100D9800A77A77EE277AC7ED0C7A97ED0B7AD7ED1D
:100DA800097A37EE277AD7ED087A77EE277AC7EDF2
:100DB8000B7A97F8373003F1010387F8373097F843
:100DC8003730032B7FF64BAF97ED0C7AD7ED0B7AC4
:100DD800C7EE277AC7ED0A7AD7ED0A7AFDEEE77AE9
:100DE80017EE903A184607F13C07BD46B0BC70476D
:100DF8000000803F000080BFB0B596B000AF7860BB
:100E080000E000BF42F67C63C2F201031B881AB2FD
:100E180040F2C1139A4256DD42F67C63C2F20103E6
:100E28001B881AB240F634039A424CDC48F6881301
:100E3800C0F6000307F144041D460FCD0FC42B680C
:100E4800236042F67C63C2F201031B881AB240F2A7
:100E58001403C2F200031B881BB2D31A1846FFF70B
:100E680095FE03469AB240F21403C2F200031B88AF
:100E78009BB2D3189BB29AB240F21403C2F2000399
:100E88001A8040F21403C2F200031B881AB240F21F
:100E9800C1139A4206DC40F21403C2F200034FF475
:100EA800E1721A8040F21403C2F200031B881AB2DE
:100EB80040F634039A4206DD40F21403C2F20003FE
:100EC80040F634021A8042F67C63C2F201031B88A2
:100ED8001AB240F65F139A4256DD42F67C63C2F2BC
:100EE80001031B881AB240F6A6639A424CDC48F606
:100EF8009C13C0F6000307F130041D460FCD0FC444
:100F08002B68236042F67C63C2F201031B881AB285
:100F180040F21603C2F200031B881BB2D31A18460C
:100F2800FFF734FE03469AB240F21603C2F20003FA
:100F38001B889BB2D3189BB29AB240F21603C2F236
:100F480000031A8040F21603C2F200031B881AB28B
:100F580040F65F139A4206DC40F21603C2F2000321
:100F68004FF416621A8040F21603C2F200031B887F
:100F78001AB240F6A6639A4206DD40F21603C2F2A0
:100F8800000340F6A6621A8042F67C63C2F20103AF
:100F98005B881AB240F2C1139A4256DD42F67C636E
:100FA800C2F201035B881AB240F26C739A424CDCBD
:100FB80048F6B013C0F6000307F11C041D460FCD18
:100FC8000FC42B68236042F67C63C2F201035B887E
:100FD8001AB240F21803C2F200031B881BB2D31ADC
:100FE8001846FFF7D3FD03469AB240F21803C2F23F
:100FF80000031B889BB2D3189BB29AB240F2180325
:10100800C2F200031A8040F21803C2F200031B88E0
:101018001AB240F26C739A4206DD40F21803C2F22B
:10102800000340F26C721A8040F21803C2F2000307
:101038001B881AB240F2C1139A4206DC40F2180328
:10104800C2F200034FF4E1721A8042F67C63C2F2E6
:1010580001035B881AB240F65F139A4256DD42F6E6
:101068007C63C2F201035B881AB240F6A6639A4217
:101078004CDC48F69C13C0F6000307F108041D4633
:101088000FCD0FC42B68236042F67C63C2F20103C4
:101098005B881AB240F21A03C2F200031B881BB223
:1010A800D31A1846FFF772FD03469AB240F21A03A4
:1010B800C2F200031B889BB2D3189BB29AB240F2CB
:1010C8001A03C2F200031A8040F21A03C2F20003A4
:1010D8001B881AB240F65F139A4206DC40F21A03E4
:1010E800C2F200034FF416621A8040F21A03C2F2E9
:1010F80000031B881AB240F6A6639A4206DD40F246
:101108001A03C2F2000340F6A6621A804FF4FA707E
:1011180001F0A8FE42F67C63C2F201031A8840F28D
:101128001403C2F200031B8812B21BB29A4209DDF3
:101138004FF48840C4F2000048F67811C0F6000168
:1011480000F0A8FA42F67C63C2F201031A8840F262
:101158001603C2F200031B8812B21BB29A4209DDC1
:101168004FF48840C4F2000048F67C11C0F6000134
:1011780000F090FA42F67C63C2F201035A8840F20A
:101188001803C2F200031B8812B21BB29A4209DD8F
:101198004FF48840C4F2000048F68011C0F6000100
:1011A80000F078FA42F67C63C2F201035A8840F2F2
:1011B8001A03C2F200031B8812B21BB29A427FF7CD
:1011C80020AE4FF48840C4F2000048F68411C0F6FF
:1011D800000100F05FFA14E680B500AF4FF49040CC
:1011E800C4F2000048F6C411C0F6000100F052FA3B
:1011F80042F67C63C2F201031B881BB240F2A400D2
:10120800C2F2000048F6D011C0F600011A4606F0F6
:1012180081FF40F2A400C2F20000FFF7E7F942F6AE
:101228007C63C2F201035B881BB240F2A800C2F2E1
:10123800000048F6D411C0F600011A4606F06AFF0D
:1012480040F2A800C2F20000FFF7D0F940F2140300
:10125800C2F200031B881BB240F2FC00C2F200007D
:1012680048F6DC11C0F600011A4606F053FF40F2BA
:10127800FC00C2F20000FFF7B9F940F21603C2F20F
:1012880000031B881BB240F20010C2F2000048F6AF
:10129800E411C0F600011A4606F03CFF40F20010C7
:1012A800C2F20000FFF7A2F940F21803C2F20003ED
:1012B8001B881BB240F20410C2F2000048F6EC1181
:1012C800C0F600011A4606F025FF40F20410C2F2EB
:1012D8000000FFF78BF940F21A03C2F200031B88E3
:1012E8001BB240F20810C2F2000048F6F411C0F632
:1012F80000011A4606F00EFF40F20810C2F2000084
:10130800FFF774F94FF47A7001F0ACFD66E700BF9F
:1013180080B58AB000AF78604FF480204FF00101AB
:1013280005F00AFF4FF002004FF0010105F086FEBC
:101338004FF440633B624FF0020387F824304FF0CC
:10134800020387F825304FF0000387F826304FF066
:10135800010387F8273007F120034FF48060C4F2B7
:101368000200194605F0F2F84FF48060C4F202005A
:101378004FF00A014FF0070205F076FA4FF480604B
:10138800C4F202004FF00B014FF0070205F06CFAAF
:101398007B683B614FF00003BB824FF00003FB8288
:1013A8004FF000033B834FF00003BB834FF00C0367
:1013B8007B8307F110034FF49040C4F200001946F4
:1013C80006F0ECF94FF49040C4F2000040F22551C9
:1013D8004FF0010206F048FD4FF027033B734FF032
:1013E80000037B734FF00003BB734FF00103FB73E3
:1013F80007F10C03184603F045FD4FF49040C4F282
:1014080000004FF0010106F005FB07F12807BD4673
:1014180080BD00BF80B58AB000AF78604FF400305F
:101428004FF0010105F088FE4FF001004FF0010177
:1014380005F004FE4FF00C033B624FF0020387F8FF
:1014480024304FF0020387F825304FF0000387F867
:1014580026304FF0010387F8273007F120034FF0BB
:101468000000C4F20200194605F070F84FF00000C1
:10147800C4F202004FF002014FF0070205F0F4F940
:101488004FF00000C4F202004FF003014FF00702D2
:1014980005F0EAF97B683B614FF00003BB824FF02F
:1014A8000003FB824FF000033B834FF00003BB8334
:1014B8004FF00C037B8307F110034FF48840C4F20C
:1014C8000000194606F06AF94FF48840C4F200009B
:1014D80040F225514FF0010206F0C6FC4FF02603FA
:1014E8003B734FF000037B734FF00003BB734FF067
:1014F8000103FB7307F10C03184603F0C3FC4FF418
:101508008840C4F200004FF0010106F083FA07F1A9
:101518002807BD4680BD00BF80B582B000AF4FF43C
:101528009040C4F2000040F2255106F021FD034628
:10153800002B00F0AA804FF44060C4F202004FF480
:10154800804105F07FF94FF49040C4F2000006F0A6
:10155800F5FA0346DAB242F67863C2F201031A706A
:1015680040F22413C2F200031B78312B49D840F211
:101578002413C2F200031B781A4642F67863C2F2BB
:101588000103197842F68463C2F20103995442F6C2
:101598007863C2F201031B78302B07D14FF4406007
:1015A800C4F202004FF4004105F04CF940F2241354
:1015B800C2F200031B781A4642F68463C2F20103A2
:1015C8009B5CDBB20D2B0ED140F20C13C2F2000370
:1015D8004FF001021A7040F22413C2F200034FF0D8
:1015E80000021A701BE040F22413C2F200031B78B9
:1015F80003F10103DAB240F22413C2F200031A70B5
:101608000DE040F20C13C2F200034FF001021A7011
:1016180040F22413C2F200034FF000021A7040F2A5
:101628000C13C2F200031B78002B2ED04FF490400D
:10163800C4F2000042F68461C2F2010100F02AF807
:101648004FF49040C4F2000048F6FC11C0F60001C7
:1016580000F020F840F20C13C2F200034FF0000231
:101668001A704FF000037B600CE042F68463C2F20C
:1016780001037A689B184FF000021A707B6803F127
:1016880001037B607B68312BEFDD07F10807BD465E
:1016980080BD00BF80B582B000AF7860396015E0CA
:1016A80000BF78684FF0800106F030FC0346002B3D
:1016B800F7D03B681B78DBB27868194606F02AFA3F
:1016C8003B681B783B6803F101033B603B681B7870
:1016D800DBB2002BE4D107F10807BD4680BD00BF8F
:1016E80080B58AB000AF786039603B68002B5DD167
:1016F80040F21C13C2F200031B781A4607F12800B7
:1017080082184FF0300102F8141C03F10103DAB219
:1017180040F21C13C2F200031A7047E039684CF615
:10172800CD43CCF6CC43A3FB01234FEAD3021346A7
:101738004FEA83039B184FEA4303CA1A40F2201367
:10174800C2F200031A6040F22013C2F200031B68C1
:101758003A68D31A3B603A684CF6CD43CCF6CC4392
:10176800A3FB02034FEAD3033B6040F21C13C2F20F
:1017780000031B78194640F22013C2F200031B68CD
:10178800DBB203F13003DAB207F12800431803F89B
:10179800142C40F21C13C2F200031B7803F101035E
:1017A800DAB240F21C13C2F200031A703B68002B35
:1017B800B4D14FF000037B6220E040F21C13C2F268
:1017C80000031B7803F1FF33DAB240F21C13C2F2B4
:1017D80000031A7040F21C13C2F200031B7807F1D1
:1017E8002801CB1813F8143CDAB207F108017B6A18
:1017F800CB181A707B6A03F101037B6240F21C1359
:10180800C2F200031B78002BD7D107F108027B6ACC
:10181800D3184FF000021A7007F108034FF49040F4
:10182800C4F200001946FFF735FF40F21C13C2F25C
:1018380000034FF000021A704FF000033B6211E002
:1018480007F114023B6AD3184FF000021A7007F12F
:1018580008023B6AD3184FF000021A703B6A03F182
:1018680001033B623B6A092BEADD07F12807BD4605
:1018780080BD00BF80B582B000AF0346FB7100BFDA
:1018880040F21013C2F200031B6818464FF0000123
:101898004FF0FF324FF0000300F076FD0346002BB7
:1018A800EED0FB799BB24FF49040C4F20000194689
:1018B80006F030F94FF49040C4F2000040F227716E
:1018C8004FF0010206F0D0FA07F10807BD4680BDC7
:1018D80080B582B000AF00BF40F21413C2F200031B
:1018E8001A6807F10403104619464FF0FF324FF00B
:1018F800000300F049FD0346002BEDD03B79184664
:1019080007F10807BD4680BD80B485B000AFF86018
:10191800B9607A60FB68A3F10403FB60FB684FF0D1
:1019280080721A60FB68A3F10403FB60BA68FB6865
:101938001A60FB68A3F10403FB60FB684FF0000228
:101948001A60FB68A3F11403FB607A68FB681A60ED
:10195800FB68A3F10403FB60FB686FF002021A60E6
:10196800FB68A3F12003FB60FB68184607F1140726
:10197800BD4680BC704700BF054B19680868B0E8D1
:10198800F04F80F309884FF0000080F3118870470A
:1019980030010020C2480068006880F3088862B6F9
:1019A80000DF00BF80B584B000AF4FF46443CEF2CF
:1019B8000003FB60FB681B78DBB2BB60FB684FF081
:1019C800FF021A70FB681B78DBB2FB71FB79DBB294
:1019D80003F05003DAB240F22813C2F200031A707F
:1019E80040F22C13C2F200034FF007021A6011E014
:1019F80040F22C13C2F200031B6803F1FF3240F2DD
:101A08002C13C2F200031A60FB79DBB24FEA4303DE
:101A1800DBB2FB71FB79DBB2DBB25BB2002BE7DB3D
:101A280040F22C13C2F200031B684FEA032240F273
:101A38002C13C2F200031A6040F22C13C2F2000306
:101A48001B6803F4E06240F22C13C2F200031A6030
:101A5800BB68DAB2FB681A704EF62053CEF2000368
:101A68004EF62052CEF20002126842F470021A605A
:101A78004EF62053CEF200034EF62052CEF200026C
:101A8800126842F070421A6000F0B0F840F21C038D
:101A9800C2F200034FF000021A6000F0C7F84EF6D9
:101AA8003473CEF200034EF63472CEF2000212689E
:101AB80042F040421A60FFF76DFF4FF000031846EE
:101AC80007F11007BD4680BD80B400AFBD4680BC9D
:101AD800704700BF80B400AF4EF60453CEF2000347
:101AE8004FF080521A60BFF34F8FBFF36F8FBD4620
:101AF80080BC704780B500AF00F02CF840F21C03A2
:101B0800C2F200031B6803F1010240F21C03C2F297
:101B180000031A60BFF34F8FBFF36F8F80BD00BF04
:101B280080B500AF40F21C03C2F200031B6803F14A
:101B3800FF3240F21C03C2F200031A6040F21C0399
:101B4800C2F200031B68002B03D14FF0000000F025
:101B58000BF880BDEFF311804FF0500181F311882D
:101B680070474FF00003184680F31188704700BF94
:101B7800EFF30980114B1A681EF0100F08BF20ED13
:101B8800108A20E9F04F10602DE908404FF050000E
:101B980080F3118801F0CCFE4FF0000080F311882B
:101BA800BDE8084019680868B0E8F04F1EF0100F4B
:101BB80008BFB0EC108A80F3098870473001002014
:101BC80080B500AFFFF7C6FF01F08EFD0346002B7E
:101BD80006D04EF60453CEF200034FF080521A603E
:101BE8004FF00000FFF7C0FF80BD00BF80B400AF1A
:101BF8004EF21403CEF2000340F20002C2F20002D9
:101C0800116844F6D352C1F26202A2FB01024FEA04
:101C1800921202F1FF321A604EF21003CEF2000364
:101C28004FF007021A60BD4680BC7047DFF87400A9
:101C3800016841F470010160704700BF90B583B03E
:101C480000AFEFF305847C607B680F2B13D948F64F
:101C58000023C0F600031A687B68D3181B78FB7052
:101C680040F22813C2F200031B78FA789A4202D293
:101C7800FFF770FFFEE74EF60C53CEF200031B6829
:101C880003F4E06240F22C13C2F200031B689A428C
:101C980002D9FFF75FFFFEE707F10C07BD4690BDCD
:101CA80008ED00E088ED00E080B483B000AF786014
:101CB8007B6803F108027B685A607B684FF0FF324B
:101CC8009A607B6803F108027B68DA607B6803F13D
:101CD80008027B681A617B684FF000021A6007F1FE
:101CE8000C07BD4680BC704780B483B000AF7860F5
:101CF8007B684FF000021A6107F10C07BD4680BCF3
:101D0800704700BF80B485B000AF786039607B68E9
:101D18005B68FB603B68FA685A60FB689A683B68D6
:101D28009A60FB689B683A685A60FB683A689A60F0
:101D38003B687A681A617B681B6803F101027B685B
:101D48001A6007F11407BD4680BC704780B485B09F
:101D580000AF786039603B681B68BB60BB68B3F153
:101D6800FF3F03D17B681B69FB600DE07B6803F1D3
:101D78000803FB6002E0FB685B68FB60FB685B686C
:101D88001A68BB689A42F6D9FB685A683B685A6079
:101D98003B685B683A689A603B68FA689A60FB68D7
:101DA8003A685A603B687A681A617B681B6803F175
:101DB80001027B681A6007F11407BD4680BC7047B2
:101DC80080B485B000AF78607B685B687A68926899
:101DD8009A607B689B687A6852685A607B681B695E
:101DE800FB60FB685A687B689A4203D17B689A68F3
:101DF800FB685A607B684FF000021A61FB681B6839
:101E080003F1FF32FB681A60FB681B68184607F18C
:101E18001407BD4680BC704780B584B000AF7860B9
:101E280039607B68FB60FB68002B02D1FFF792FEEC
:101E3800FEE7FFF75FFEFB681A68FB68DB6BF96873
:101E4800096C01FB03F3D218FB685A60FB684FF07A
:101E580000029A63FB681A68FB689A60FB681A6854
:101E6800FB68DB6B03F1FF33F968096C01FB03F3D3
:101E7800D218FB68DA60FB684FF0FF325A64FB68DF
:101E88004FF0FF329A643B68002B0FD1FB681B6947
:101E9800002B17D0FB6803F11003184601F064FE0D
:101EA8000346012B0ED1FFF715FE0BE0FB6803F18B
:101EB80010031846FFF7F8FEFB6803F124031846E1
:101EC800FFF7F2FEFFF72CFE4FF00103184607F16B
:101ED8001007BD4680BD00BF80B588B000AFF86070
:101EE800B9601346FB714FF00003FB61FB68002BE0
:101EF8002DD04FF0500002F0B7FDB861BB69002B40
:101F080025D0FB68BA6802FB03F303F101037B6188
:101F1800786902F0A9FD0246BB691A60BB691B68B3
:101F2800002B11D0BB69FA68DA63BB69BA681A6416
:101F3800B8694FF00101FFF76FFFBB69FA7983F8C1
:101F48004D20BB69FB6102E0B86902F03FFEFB6906
:101F5800002B02D1FFF7FEFDFEE7FB69184607F1EB
:101F68002007BD4680BD00BF80B584B000AF0346E2
:101F7800FB714FF0500002F077FDF860FB68002B12
:101F88003CD0FB684FF000025A60FB684FF000023B
:101F98001A60FB684FF000029A60FB684FF000027D
:101FA800DA60FB684FF000029A63FB684FF00102A9
:101FB800DA63FB684FF000021A64FB684FF0FF32E7
:101FC8005A64FB684FF0FF329A64FB68FA7983F829
:101FD8004D20FB6803F110031846FFF765FEFB6808
:101FE80003F124031846FFF75FFEF8684FF000017D
:101FF8004FF000024FF0000300F096F8FB68002B4A
:1020080002D1FFF7A7FDFEE7FB68184607F11007A6
:10201800BD4680BD90B585B000AF78607B68BB6079
:10202800BB68002B02D1FFF795FDFEE7BB685C6833
:1020380002F0E6F803469C4216D1BB68DB6803F160
:10204800FF32BB68DA60BB68DB68002B08D1B86870
:102058004FF000014FF000024FF0000300F064F869
:102068004FF00103FB6002E04FF00003FB60FB68E8
:10207800184607F11407BD4690BD00BF90B585B05E
:1020880000AF786039607B68BB60BB68002B02D109
:10209800FFF760FDFEE7BB685C6802F0B1F8034635
:1020A8009C4209D1BB68DB6803F10102BB68DA60B6
:1020B8004FF00103FB6011E0B8684FF000013A6887
:1020C8004FF0000300F060F9F860FB68012B05D1C0
:1020D800BB68DB6803F10102BB68DA60FB6818467D
:1020E80007F11407BD4690BD80B584B000AF786095
:1020F800396078684FF000014FF00202FFF7ECFEFC
:10210800F860FB68002B02D0FB683A689A63FB68AA
:10211800002B02D1FFF71EFDFEE7FB68184607F10A
:102128001007BD4680BD00BF80B588B000AFF8601D
:10213800B9607A603B604FF00003FB61FB68BB61EC
:10214800BB69002B02D1FFF705FDFEE7BB68002B3A
:1021580003D1BB691B6C002B02D14FF0010301E0D6
:102168004FF00003002B02D1FFF7F4FCFEE73B68B9
:10217800022B03D1BB69DB6B012B02D14FF00103AA
:1021880001E04FF00003002B03D1FFF7E3FCFEE76B
:1021980000BFFFF7AFFCBB699A6BBB69DB6B9A4268
:1021A80002D33B68022B18D1B869B9683A6800F0C5
:1021B800DFFABB695B6A002B0AD0BB6903F1240311
:1021C800184601F0D1FC0346012B01D1FFF782FC30
:1021D800FFF7A6FC4FF001035DE07B68002B04D1FC
:1021E800FFF79EFC4FF0000355E0FB69002B07D179
:1021F80007F11003184601F01FFD4FF00103FB61C2
:10220800FFF78EFC01F0D4F8FFF774FCBB695B6C38
:10221800B3F1FF3F03D1BB694FF000025A64BB69B9
:102228009B6CB3F1FF3F03D1BB694FF000029A6486
:10223800FFF776FC07F1100207F104031046194670
:1022480001F016FD0346002B1ED1B86900F0ACFB67
:102258000346002B12D0BB6903F110027B681046BD
:10226800194601F00FFCB86900F018FB01F0B2F84C
:102278000346002B8CD1FFF72DFC89E7B86900F0E5
:102288000DFB01F0A7F883E7B86900F007FB01F040
:10229800A1F84FF00003184607F12007BD4680BD9E
:1022A80080B588B000AFF860B9607A603B60FB68C1
:1022B800BB61BB69002B02D1FFF74CFCFEE7BB6892
:1022C800002B03D1BB691B6C002B02D14FF001031B
:1022D80001E04FF00003002B02D1FFF73BFCFEE7C3
:1022E8003B68022B03D1BB69DB6B012B02D14FF09A
:1022F800010301E04FF00003002B02D1FFF72AFC95
:10230800FEE7FFF79BFCFFF725FC7861BB699A6B3A
:10231800BB69DB6B9A4202D33B68022B28D1B869B0
:10232800B9683A6800F024FABB699B6CB3F1FF3FC7
:1023380014D1BB695B6A002B16D0BB6903F1240377
:10234800184601F011FC0346002B0DD07B68002BCA
:102358000AD07B684FF001021A6005E0BB699B6CEC
:1023680003F10102BB699A644FF00103FB6102E0CB
:102378004FF00003FB617869FFF7F6FBFB6918462D
:1023880007F12007BD4680BD80B58AB000AFF86070
:10239800B9607A603B604FF000037B62FB683B6288
:1023A8003B6A002B02D1FFF7D5FBFEE7BB68002B89
:1023B80003D13B6A1B6C002B02D14FF0010301E0F3
:1023C8004FF00003002B03D1FFF7C4FBFEE700BF6B
:1023D800FFF790FB3B6A9B6B002B3FD03B6ADB68A7
:1023E800FB61386AB96800F031FA3B68002B1ED1EE
:1023F8003B6A9B6B03F1FF323B6A9A633B6A1B683B
:10240800002B04D101F0FCFE02463B6A5A603B6A8D
:102418001B69002B1DD03B6A03F11003184601F01D
:10242800A3FB0346012B14D1FFF754FB11E03B6AD1
:10243800FA69DA603B6A5B6A002B0AD03B6A03F1EF
:102448002403184601F090FB0346002B01D0FFF748
:1024580041FBFFF765FB4FF001036BE07B68002B46
:1024680004D1FFF75DFB4FF0000363E07B6A002BAC
:1024780007D107F11403184601F0DEFB4FF0010302
:102488007B62FFF74DFB00F093FFFFF733FB3B6ADE
:102498005B6CB3F1FF3F03D13B6A4FF000025A6413
:1024A8003B6A9B6CB3F1FF3F03D13B6A4FF00002DC
:1024B8009A64FFF735FB07F1140207F1040310468D
:1024C800194601F0D5FB0346002B2CD1386A00F0E1
:1024D80035FA0346002B20D03B6A1B68002B08D135
:1024E800FFF708FB3B6A5B68184601F0BDFEFFF783
:1024F80017FB3B6A03F124027B681046194601F07A
:10250800C1FA386A00F0CAF900F064FF0346002BEC
:102518007FF45DAFFFF7DEFA59E7386A00F0BEF9DD
:1025280000F058FF53E7386A00F0B8F900F052FF9E
:102538004FF00003184607F12807BD4680BD00BFCD
:1025480080B588B000AFF860B9607A60FB68BB619D
:10255800BB69002B02D1FFF7FDFAFEE7BB68002B31
:1025680003D1BB691B6C002B02D14FF0010301E0C2
:102578004FF00003002B02D1FFF7ECFAFEE7FFF75C
:102588005DFBFFF7E7FA7861BB699B6B002B2DD0E9
:10259800B869B96800F05AF9BB699B6B03F1FF325F
:1025A800BB699A63BB695B6CB3F1FF3F14D1BB692C
:1025B8001B69002B16D0BB6903F11003184601F004
:1025C800D3FA0346002B0DD07B68002B0AD07B681A
:1025D8004FF001021A6005E0BB695B6C03F1010270
:1025E800BB695A644FF00103FB6102E04FF000033E
:1025F800FB617869FFF7B8FAFB69184607F120070D
:10260800BD4680BD80B586B000AF786039607B6814
:102618003B613B69002B02D1FFF79CFAFEE73B6860
:10262800002B03D13B691B6C002B02D14FF0010337
:1026380001E04FF00003002B02D1FFF78BFAFEE711
:10264800FFF7FCFAFFF786FAF8603B699B6B002BF3
:102658000DD03B69DB68BB603869396800F0F6F873
:102668003B69BA68DA604FF001037B6102E04FF022
:1026780000037B61F868FFF777FA7B69184607F172
:102688001807BD4680BD00BF80B584B000AF786034
:102698007B68002B02D1FFF75DFAFEE7FFF72AFA05
:1026A8007B689B6BFB60FFF73BFAFB68184607F1FA
:1026B8001007BD4680BD00BF80B584B000AF78600C
:1026C8007B68002B02D1FFF745FAFEE77B689B6B1E
:1026D800FB60FB68184607F11007BD4680BD00BFC8
:1026E80080B584B000AF78607B68FB60FB68002B26
:1026F80002D1FFF72FFAFEE7F86800F0C1F9FB688E
:102708001B68184602F062FAF86802F05FFA07F1EF
:102718001007BD4680BD00BF80B483B000AF7860AD
:102728007B6893F84C30184607F10C07BD4680BC0F
:10273800704700BF80B483B000AF78600B46FB7071
:102748007B68FA7883F84C2007F10C07BD4680BCFB
:10275800704700BF80B483B000AF78607B6893F89F
:102768004D30184607F10C07BD4680BC704700BFC6
:1027780080B584B000AFF860B9607A60FB681B6C04
:10278800002B0DD1FB681B68002B55D1FB685B68DB
:10279800184601F0DDFDFB684FF000025A604BE07F
:1027A8007B68002B1AD1FB689A68FB681B6C104683
:1027B800B9681A4605F09DFCFB689A68FB681B6CB3
:1027C800D218FB689A60FB689A68FB685B689A4253
:1027D80032D3FB681A68FB689A602DE0FB68DA68F8
:1027E800FB681B6C1046B9681A4605F082FCFB684A
:1027F800DA68FB681B6CC3F10003D218FB68DA6067
:10280800FB68DA68FB681B689A4208D2FB685A685A
:10281800FB681B6CC3F10003D218FB68DA607B68A5
:10282800022B09D1FB689B6B002B05D0FB689B6BC7
:1028380003F1FF32FB689A63FB689B6B03F10102AB
:10284800FB689A6307F11007BD4680BD80B582B06A
:1028580000AF786039607B681B68002B19D07B68F3
:10286800DA687B681B6CD2187B68DA607B68DA6888
:102878007B685B689A4203D37B681A687B68DA6076
:102888007B68DA687B681B6C386811461A4605F065
:1028980030FC07F10807BD4680BD00BF80B582B097
:1028A80000AF7860FFF726F914E07B685B6A002BBD
:1028B80015D07B6803F12403184601F055F9034647
:1028C800002B01D001F02CFA7B689B6C03F1FF32DE
:1028D8007B689A647B689B6C002BE6DC00E000BF99
:1028E8007B684FF0FF329A64FFF71AF9FFF702F995
:1028F80014E07B681B69002B15D07B6803F110037B
:10290800184601F031F90346002B01D001F008FA0E
:102918007B685B6C03F1FF327B685A647B685B6C95
:10292800002BE6DC00E000BF7B684FF0FF325A6402
:10293800FFF7F6F807F10807BD4680BD80B584B0FB
:1029480000AF7860FFF7D6F87B689B6B002B03D14C
:102958004FF00103FB6002E04FF00003FB60FFF75C
:10296800DFF8FB68184607F11007BD4680BD00BFB9
:1029780080B584B000AF78607B68002B02D1FFF788
:10298800E9F8FEE77B689B6B002B03D14FF001034E
:10299800FB6002E04FF00003FB60FB68184607F19C
:1029A8001007BD4680BD00BF80B584B000AF786019
:1029B800FFF7A0F87B689A6B7B68DB6B9A4203D1C0
:1029C8004FF00103FB6002E04FF00003FB60FFF7EC
:1029D800A7F8FB68184607F11007BD4680BD00BF81
:1029E80080B584B000AF78607B68002B02D1FFF718
:1029F800B1F8FEE77B689A6B7B68DB6B9A4203D180
:102A08004FF00103FB6002E04FF00003FB60FB683E
:102A1800184607F11007BD4680BD00BF80B485B0D9
:102A280000AF786039604FF00003FB601FE042F6AA
:102A3800CC63C2F20103FA6853F83230002B12D18A
:102A480042F6CC63C2F20103FA68396843F83210DF
:102A580042F6CC62C2F20102FB684FEAC303D31804
:102A68007A685A6006E0FB6803F10103FB60FB68C3
:102A7800072BDCD907F11407BD4680BC704700BF9F
:102A880080B485B000AF78604FF00003FB6019E0B8
:102A980042F6CC62C2F20102FB684FEAC303D318C4
:102AA8005A687B689A4209D142F6CC63C2F20103A4
:102AB800FA684FF0000143F8321006E0FB6803F1B2
:102AC8000103FB60FB68072BE2D907F11407BD4639
:102AD80080BC704780B584B000AF786039607B688F
:102AE800FB60FFF707F8FB685B6CB3F1FF3F03D1AE
:102AF800FB684FF000025A64FB689B6CB3F1FF3F20
:102B080003D1FB684FF000029A64FFF709F8FB68ED
:102B18009B6B002B06D1FB6803F124031846396828
:102B280000F0F2FFF868FFF7B9FE07F11007BD469D
:102B380080BD00BF80B58AB002AFF860B9603B6065
:102B48001346FB80FB68002B02D1FFF703F8FEE772
:102B5800BB6A042B02D9FEF7FDFFFEE7FB88184687
:102B6800396B01F05BFAB861BB69002B00F0A380F8
:102B7800BB691A6BFB8803F1FF334FEA8303D31851
:102B88007B617B6923F007037B617B6903F00703A3
:102B9800002B02D0FEF7DEFFFEE7FB880093B86942
:102BA800B968BA6A7B6B01F003F97869F9683A6821
:102BB800FEF7AAFE0246BB691A60FB6A002B02D028
:102BC800FB6ABA691A60FEF795FF40F20823C2F261
:102BD80000031B6803F1010240F20823C2F200035C
:102BE8001A6040F23013C2F200031B68002B0FD1A9
:102BF80040F23013C2F20003BA691A6040F20823A7
:102C0800C2F200031B68012B18D101F021F915E06D
:102C180040F21423C2F200031B68002B0ED140F2CD
:102C28003013C2F200031B68DA6ABB6A9A4205D8FD
:102C380040F23013C2F20003BA691A6040F2282346
:102C4800C2F200031B6803F1010240F22823C2F21A
:102C580000031A6040F22823C2F200031A68BB6915
:102C68001A64BB69DA6A40F21023C2F200031B68D7
:102C78009A4206D9BB69DA6A40F21023C2F200030D
:102C88001A60BB69DA6A13464FEA83039B184FEA56
:102C9800830340F23412C2F200029A18BB6903F1AE
:102CA800040310461946FFF72DF84FF00103FB61A6
:102CB800FEF736FF02E04FF0FF33FB61FB69012BA3
:102CC80011D140F21423C2F200031B68002B0AD072
:102CD80040F23013C2F200031B68DA6ABB6A9A42F8
:102CE80001D2FEF7F7FEFB69184607F12007BD463B
:102CF80080BD00BF80B584B000AF7860FEF7FAFEF3
:102D08007B68002B05D140F23013C2F200031B6828
:102D180000E07B68FB60FB6803F104031846FFF7DB
:102D28004FF8FB689B6A002B05D0FB6803F118037A
:102D38001846FFF745F8FB6803F1040340F2DC107E
:102D4800C2F200001946FEF7DDFF40F2F013C2F2AE
:102D580000031B6803F1010240F2F013C2F2000302
:102D68001A6040F22823C2F200031B6803F1010233
:102D780040F22823C2F200031A60FEF7D1FE40F2A7
:102D88001423C2F200031B68002B09D040F2301351
:102D9800C2F200031B68FA689A4201D1FEF79AFE54
:102DA80007F11007BD4680BD80B586B000AF7860DA
:102DB80039604FF000037B617B68002B02D1FEF77E
:102DC800C9FEFEE73B68002B02D1FEF7C3FEFEE713
:102DD80000F0EEFA40F20C23C2F200031B683B61DC
:102DE8007B681A683B68D318FB607B681A683B6984
:102DF8009A420CD97B681A68FB689A4213D9FA6818
:102E08003B699A420FD94FF001037B610BE07B6865
:102E18001A68FB689A4203D8FA683B699A4202D951
:102E28004FF001037B617B68FA681A607B69002BAD
:102E38000CD040F23013C2F200031B6803F1040304
:102E48001846FEF7BDFFF86801F0A2F800F0C2FAD4
:102E5800B860BB68002B01D1FEF73CFE07F11807EC
:102E6800BD4680BD80B584B000AF78604FF00003E8
:102E7800FB607B68002B19D000F09AFA40F20C2313
:102E8800C2F200031A687B68D318BB6040F23013A3
:102E9800C2F200031B6803F104031846FEF790FF13
:102EA800B86801F075F800F095FAF860FB68002B37
:102EB80001D1FEF70FFE07F11007BD4680BD00BF28
:102EC80080B584B000AF7860FEF714FE7B68002BF5
:102ED80005D140F23013C2F200031B6800E07B68A2
:102EE800FB60FB68DB6ABB60FEF71AFEBB6818462E
:102EF80007F11007BD4680BD80B586B000AF786089
:102F080039604FF000037B613B68042B02D9FEF760
:102F180021FEFEE73B68042B02D94FF004033B6017
:102F2800FEF7E8FD7B68002B05D140F23013C2F2B2
:102F380000031B6800E07B683B613B699B6CFB609E
:102F4800FA683B689A427DD03A68FB689A4214D97D
:102F580040F23013C2F200031B683A699A4217D054
:102F680040F23013C2F200031B68DA6A3B689A42E7
:102F78000ED84FF001037B610AE040F23013C2F231
:102F880000031B683A699A4202D14FF001037B6142
:102F98003B69DB6ABB603B699A6C3B69DB6A9A42B6
:102FA80002D13B693A68DA623B693A689A643B68DD
:102FB800C3F105023B699A613B695969BA681346CE
:102FC8004FEA83039B184FEA830340F23412C2F29C
:102FD80000029B18994202D14FF0010301E04FF023
:102FE8000003002B29D03B6903F104031846FEF7C0
:102FF800E7FE3B69DA6A40F21023C2F200031B685D
:103008009A4206D93B69DA6A40F21023C2F20003F9
:103018001A603B69DA6A13464FEA83039B184FEA42
:10302800830340F23412C2F200029A183B6903F19A
:10303800040310461946FEF765FE7B69012B01D192
:10304800FEF748FDFEF76CFD07F11807BD4680BD89
:1030580080B584B000AF7860FEF74CFD7B68002B2C
:1030680005D140F23013C2F200031B6800E07B6810
:10307800FB60FB6803F104031846FEF7A1FEFB683A
:103088009B6A002B05D0FB6803F118031846FEF76E
:1030980097FEFB6803F1040340F2F410C2F200004B
:1030A8001946FEF72FFEFEF73BFD40F23013C2F241
:1030B80000031B68FA689A421FD140F21423C2F237
:1030C80000031B68002B02D0FEF704FD15E040F258
:1030D800F413C2F200031A6840F20823C2F2000394
:1030E8001B689A4207D140F23013C2F200034FF036
:1030F80000021A6001E000F01BFC07F11007BD4652
:1031080080BD00BF80B584B000AF78604FF0000389
:10311800FB607B68BB607B68002B02D1FEF71AFD61
:10312800FEE7BB685A6940F2F413C2F200039A4200
:1031380002D14FF0010301E04FF00003002B15D03E
:10314800BB689A6A40F2C813C2F200039A420DD0D3
:10315800BB689B6A002B02D14FF0010301E04FF0DE
:103168000003002B02D04FF00103FB60FB681846F8
:1031780007F11007BD4680BD80B584B000AF786008
:103188007B68FB607B68002B02D1FEF7E3FCFEE75F
:10319800FB68002B47D040F23013C2F200031B68D3
:1031A800FA689A423FD0FEF7A5FCF868FFF7AAFF35
:1031B8000346012B35D1FB6803F104031846FEF7DB
:1031C800FFFDFB68DA6A40F21023C2F200031B68B5
:1031D8009A4206D9FB68DA6A40F21023C2F2000369
:1031E8001A60FB68DA6A13464FEA83039B184FEAB2
:1031F800830340F23412C2F200029A18FB6803F10A
:10320800040310461946FEF77DFDFB68DA6A40F2B2
:103218003013C2F200031B68DB6A9A4201D3FEF73F
:1032280059FCFEF77DFC07F11007BD4680BD00BFC5
:1032380080B586B000AF78604FF000037B617B6893
:103248003B617B68002B02D1FEF784FCFEE7FEF7AA
:10325800F5FCFEF77FFCF8603869FFF753FF03467B
:10326800012B49D140F21823C2F200031B68002B3E
:1032780038D13B69DA6A40F23013C2F200031B68A6
:10328800DB6A9A4234BF00230123DBB27B613B69CE
:1032980003F104031846FEF793FD3B69DA6A40F22E
:1032A8001023C2F200031B689A4206D93B69DA6A06
:1032B80040F21023C2F200031A603B69DA6A13462F
:1032C8004FEA83039B184FEA830340F23412C2F299
:1032D80000029A183B6903F1040310461946FEF7E9
:1032E80011FD09E03B6903F1180340F2C810C2F26E
:1032F80000001946FEF706FDF868FEF735FC7B6905
:10330800184607F11807BD4680BD00BF80B586B0D6
:1033180004AF4FF0000300934FF0000301934FF008
:10332800000302934FF00003039343F69550C0F651
:10333800000048F60421C0F600014FF082024FF069
:103348000003FFF7F7FB78607B68012B02D101F0DF
:1033580047F878607B68012B12D1FEF7FBFB40F23F
:103368001423C2F200034FF001021A6040F20C234A
:10337800C2F200034FF000021A60FEF713FB05E0EB
:103388007B68002B02D1FEF7E5FBFEE707F1080793
:10339800BD4680BD80B500AFFEF7DCFB40F21423CC
:1033A800C2F200034FF000021A60FEF78DFB80BDE9
:1033B80080B400AF40F21823C2F200031B6803F187
:1033C800010240F21823C2F200031A60BD4680BC15
:1033D800704700BF80B584B000AF4FF00003FB60BA
:1033E8004FF00003BB6040F21823C2F200031B68D1
:1033F800002B02D1FEF7AEFBFEE7FEF77BFB40F2A7
:103408001823C2F200031B6803F1FF3240F21823AD
:10341800C2F200031A6040F21823C2F200031B68CC
:10342800002B40F08D8040F20823C2F200031B6895
:10343800002B00F0858043E040F2C813C2F200037D
:10344800DB68DB687B607B6803F118031846FEF7CE
:10345800B7FC7B6803F104031846FEF7B1FC7B68F0
:10346800DA6A40F21023C2F200031B689A4206D9B6
:103478007B68DA6A40F21023C2F200031A607B68A4
:10348800DA6A13464FEA83039B184FEA830340F234
:103498003412C2F200029A187B6803F10403104642
:1034A8001946FEF72FFC7B68DA6A40F23013C2F245
:1034B80000031B68DB6A9A4202D34FF00103BB602A
:1034C80040F2C813C2F200031B68002BB4D140F2CB
:1034D8001C23C2F200031B68002B1BD013E000F072
:1034E80003F90346002B02D04FF00103BB6040F202
:1034F8001C23C2F200031B6803F1FF3240F21C23B5
:10350800C2F200031A6040F21C23C2F200031B68D7
:10351800002BE4D1BB68012B06D040F22023C2F275
:1035280000031B68012B0BD14FF00103FB6040F235
:103538002023C2F200034FF000021A60FEF7CAFA15
:10354800FEF7EEFAFB68184607F11007BD4680BD86
:1035580080B582B000AFFEF7CDFA40F20C23C2F27C
:1035680000031B687B60FEF7DBFA7B68184607F1EF
:103578000807BD4680BD00BF80B582B000AFFEF72A
:103588005DFBFEF7E7FA786040F20C23C2F2000315
:103598001B683B607868FEF7E7FA3B68184607F156
:1035A8000807BD4680BD00BF80B400AF40F20823C5
:1035B800C2F200031B681846BD4680BC704700BFB6
:1035C80080B586B000AFF860B9607A604FF000034C
:1035D8007B614FF005033B61FFF7EAFE40F20823E9
:1035E800C2F200031B68BA689A4274D33B6903F1BC
:1035F800FF333B617B694FEA4313FA68D1183A6994
:1036080013464FEA83039B184FEA830340F23412B0
:10361800C2F200029B18084619464FF0010200F05A
:1036280035FD03467A69D3187B613B69002BDDD1F0
:103638007B694FEA4313FA68D21840F2C013C2F20A
:1036480000031B68104619464FF0020200F01EFDE9
:1036580003467A69D3187B617B694FEA4313FA689A
:10366800D21840F2C413C2F200031B681046194670
:103678004FF0020200F00AFD03467A69D3187B6115
:103688007B694FEA4313FA68D318184640F2DC11F5
:10369800C2F200014FF0040200F0F8FC03467A6918
:1036A800D3187B617B694FEA4313FA68D31818462D
:1036B80040F2F411C2F200014FF0030200F0E6FC00
:1036C80003467A69D3187B617B68002B03D07B683B
:1036D8004FF000021A60FFF77DFE7B69184607F17C
:1036E8001807BD4680BD00BF80B586B000AF4FF05B
:1036F80000037B6140F21823C2F200031B68002B11
:1037080040F0F98040F20C23C2F200031B6803F179
:10371800010240F20C23C2F200031A6040F20C23AB
:10372800C2F200031B683B613B69002B52D140F297
:10373800C013C2F200031B681B68002B02D0FEF7FF
:1037480009FAFEE740F2C013C2F200031B68FB60EF
:1037580040F2C413C2F200031A6840F2C013C2F266
:1037680000031A6040F2C413C2F20003FA681A6038
:1037780040F22423C2F200031B6803F1010240F265
:103788002423C2F200031A6040F2C013C2F20003FD
:103798001B681B68002B02D14FF0010301E04FF0BA
:1037A8000003002B07D040F22003C2F200034FF0C1
:1037B800FF321A600EE040F2C013C2F200031B6829
:1037C800DB68DB68BB60BB685A6840F22003C2F262
:1037D80000031A6040F22003C2F200031B683A6932
:1037E8009A4270D300E000BF40F2C013C2F2000357
:1037F8001B681B68002B02D14FF0010301E04FF05A
:103808000003002B07D040F22003C2F200034FF060
:10381800FF321A6057E040F2C013C2F200031B687F
:10382800DB68DB68BB60BB685B687B603A697B68A8
:103838009A4206D240F22003C2F200037A681A6064
:1038480041E0BB6803F104031846FEF7B9FABB6808
:103858009B6A002B05D0BB6803F118031846FEF7D6
:10386800AFFABB68DA6A40F21023C2F200031B68A1
:103878009A4206D9BB68DA6A40F21023C2F2000302
:103888001A60BB68DA6A13464FEA83039B184FEA4B
:10389800830340F23412C2F200029A18BB6803F1A3
:1038A800040310461946FEF72DFABB68DA6A40F29F
:1038B8003013C2F200031B68DB6A9A4293D34FF0BD
:1038C80001037B618FE740F23013C2F200031B68EB
:1038D800D96A40F23412C2F200020B464FEA83035F
:1038E8005B184FEA8303D3181B68012B11D94FF0DB
:1038F80001037B610DE040F21C23C2F200031B6848
:1039080003F1010240F21C23C2F200031A60FCF723
:1039180053FE40F21C23C2F200031B68002B01D1A6
:10392800FCF74AFE7B69184607F11807BD4680BDBB
:1039380080B582B000AF40F21823C2F200031B68C2
:10394800002B07D040F22023C2F200034FF00102FF
:103958001A6093E040F23013C2F200031B681A6841
:1039680040F23013C2F200031B681B6B9A420FD857
:1039780040F23013C2F200031A6840F23013C2F268
:1039880000031B6803F1340310461946FCF726FEB2
:1039980040F23013C2F200031B681B6B184648F64E
:1039A8000C21C0F600014FF0140204F093FB03460B
:1039B800002B26D040F23013C2F200031A6840F2FE
:1039C8003013C2F200031B6803F134031046194692
:1039D800FCF704FE15E040F21023C2F200031B6856
:1039E800002B02D1FEF7B6F8FEE740F21023C2F230
:1039F80000031B6803F1FF3240F21023C2F20003F8
:103A08001A6040F21023C2F20003196840F234121F
:103A1800C2F200020B464FEA83035B184FEA8303A6
:103A2800D3181B68002BD6D040F21023C2F2000333
:103A38001A6813464FEA83039B184FEA830340F240
:103A48003412C2F200029B187B607B685B685A687C
:103A58007B685A607B685A687B6803F108039A425E
:103A680004D17B685B685A687B685A607B685B68CE
:103A7800DA6840F23013C2F200031A6007F108074F
:103A8800BD4680BD80B584B000AF786039607B6882
:103A9800002B02D1FEF75EF8FEE740F23013C2F2C7
:103AA80000031B6803F1180378681946FEF74EF9FE
:103AB80040F23013C2F200031B6803F104031846F6
:103AC800FEF77EF93B68B3F1FF3F0ED140F23013A9
:103AD800C2F200031B6803F1040340F2F410C2F2BF
:103AE80000001946FEF70EF90AE040F20C23C2F274
:103AF80000031A683B68D318FB60F86800F048FABE
:103B080007F11007BD4680BD80B584B000AF78606E
:103B180039607B68002B02D1FEF71CF8FEE740F203
:103B28003013C2F200031B6803F1180378681946C2
:103B3800FEF7E8F840F23013C2F200031B6803F105
:103B480004031846FEF73CF940F20C23C2F20003C6
:103B58001A683B68D318FB60F86800F019FA07F197
:103B68001007BD4680BD00BF80B584B000AF786047
:103B78007B68DB68DB68BB60BB68002B02D1FDF7A4
:103B8800E9FFFEE7BB6803F118031846FEF718F9CA
:103B980040F21823C2F200031B68002B2AD1BB682D
:103BA80003F104031846FEF70BF9BB68DA6A40F222
:103BB8001023C2F200031B689A4206D9BB68DA6A6E
:103BC80040F21023C2F200031A60BB68DA6A134697
:103BD8004FEA83039B184FEA830340F23412C2F280
:103BE80000029A18BB6803F1040310461946FEF751
:103BF80089F809E0BB6803F1180340F2C810C2F263
:103C080000001946FEF77EF8BB68DA6A40F2301306
:103C1800C2F200031B68DB6A9A4203D34FF0010328
:103C2800FB6002E04FF00003FB60FB68184607F1F9
:103C38001007BD4680BD00BF80B582B000AF786078
:103C48007B68002B02D1FDF785FFFEE740F22423B5
:103C5800C2F200031A687B681A6040F20C23C2F2B1
:103C680000031A687B685A6007F10807BD4680BDE3
:103C780080B584B000AF786039607B68002B02D1D2
:103C8800FDF768FFFEE73B68002B02D1FDF762FFF6
:103C9800FEE7FDF72FFF40F20C23C2F200031B687A
:103CA800BB603B681B68B3F1FF3F03D14FF00003D3
:103CB800FB602CE07B681A6840F22423C2F2000300
:103CC8001B689A4208D07B685A68BB689A4203D836
:103CD8004FF00103FB601AE07B685B68BA68D21A90
:103CE8003B681B689A420FD23B681A687B68596820
:103CF800BB68CB1AD2183B681A607868FFF79CFF3C
:103D08004FF00003FB6002E04FF00103FB60FDF79A
:103D180007FFFB68184607F11007BD4680BD00BFC6
:103D280080B400AF40F22023C2F200034FF001023A
:103D38001A60BD4680BC704780B485B000AF78601B
:103D48007B68002B05D07B68BB60BB685B6CFB6045
:103D580002E04FF00003FB60FB68184607F1140708
:103D6800BD4680BC704700BF80B485B000AF7860A6
:103D780039607B68002B04D07B68FB60FB683A687D
:103D88005A6407F11407BD4680BC704780B582B0FD
:103D980000AF786000F0AEF840F23413C2F20003CE
:103DA8001B68012B01D9FDF795FEFCF711FCF1E723
:103DB80080B586B000AFF860B9607A603B604FF0BC
:103DC80000037B6113E0BA687B69D3181A78F96835
:103DD8007B69CB1803F130031A71BA687B69D31871
:103DE8001B78002B07D07B6903F101037B617B699A
:103DF800092BE8D900E000BFFB684FF0000283F808
:103E08003D207B68042B02D94FF004037B60FB68DC
:103E18007A68DA62FB687A689A64FB6803F10403DB
:103E28001846FDF761FFFB6803F118031846FDF714
:103E38005BFFFB68FA681A617B68C3F10502FB68DF
:103E48009A61FB68FA685A6207F11807BD4680BD97
:103E580080B582B000AF4FF000037B6012E07A6853
:103E680013464FEA83039B184FEA830340F2341248
:103E7800C2F200029B181846FDF716FF7B6803F193
:103E880001037B607B68042BE9D940F29810C2F2E9
:103E98000000FDF709FF40F2AC10C2F20000FDF788
:103EA80003FF40F2C810C2F20000FDF7FDFE40F229
:103EB800DC10C2F20000FDF7F7FE40F2F410C2F287
:103EC8000000FDF7F1FE40F2C013C2F2000340F219
:103ED8009812C2F200021A6040F2C413C2F2000340
:103EE80040F2AC12C2F200021A6007F10807BD46A0
:103EF80080BD00BF80B582B000AF3DE0FFF758FA43
:103F080040F2DC13C2F200031B68002B14BF00232D
:103F18000123DBB27B60FFF75DFA7B68002B2BD1B6
:103F2800FDF7E8FD40F2DC13C2F20003DB68DB6852
:103F38003B603B6803F104031846FDF741FF40F27C
:103F48000823C2F200031B6803F1FF3240F2082382
:103F5800C2F200031A6040F2F013C2F200031B68B9
:103F680003F1FF3240F2F013C2F200031A60FDF7CA
:103F7800D7FD386800F034F940F2F013C2F20003BC
:103F88001B68002BBAD107F10807BD4680BD00BFEA
:103F980080B582B000AF786040F23013C2F20003FF
:103FA8001B687A685A6040F20C23C2F200031B684F
:103FB8007A689A4210D240F2C413C2F200031A6817
:103FC80040F23013C2F200031B6803F104031046E9
:103FD8001946FDF7BBFE1DE040F2C013C2F2000314
:103FE8001A6840F23013C2F200031B6803F104039D
:103FF80010461946FDF7AAFE40F22003C2F200035C
:104008001B687A689A4205D240F22003C2F2000384
:104018007A681A6007F10807BD4680BD80B584B08C
:1040280000AF03463960FB804FF04C0000F01CFDE8
:10403800F860FB68002B23D03B68002B07D1FB8876
:104048004FEA8303184600F00FFD034600E03B6883
:10405800FA681363FB681B6B002B06D1F86800F045
:10406800B5FD4FF00003FB600AE0FB681A6BFB88A4
:104078004FEA830310464FF0A5011A4604F042F8B0
:10408800FB68184607F11007BD4680BD90B58BB098
:1040980000AFF860B9601346FB714FF000037B6214
:1040A800BB681B68002B78D0BB683B623B6A5B68C7
:1040B8005A683B6A5A603B6A5A683B6A03F10803CC
:1040C8009A4204D13B6A5B685A683B6A5A603B6A09
:1040D8005B68DB68FB61BB68BB61BB695B685A688E
:1040E800BB695A60BB695A68BB6903F108039A4205
:1040F80004D1BB695B685A68BB695A60BB695B6875
:10410800DB687B617B6A4FEA4313FA68D3187A69E4
:104118001A607B6A4FEA4313FA68D3187A6902F186
:1041280034025A607B6A4FEA4313FA68D3187A69F3
:10413800126C9A607B6A4FEA4313FA68D318FA79CB
:104148001A737B6A4FEA4313FA68D3187A69D26AFA
:104158001A617B6A4FEA4313FA68D3187A69926C3A
:104168005A617B6A4FEA4313FA68D3184FF000028A
:104178009A617B6A4FEA4313FA68D4187B691B6B10
:10418800184600F011F80346A3837B6A03F1010384
:104198007B627A69FB699A429DD17B6A184607F16E
:1041A8002C07BD4690BD00BF90B482B000AF7860C8
:1041B8004FF0000406E07B6803F101037B6004F123
:1041C80001039CB27B681B78A52BF4D04FEA9403BB
:1041D8009CB22346184607F10807BD4690BC7047B5
:1041E80080B582B000AF78607B681B6B184600F022
:1041F800EDFC786800F0EAFC07F10807BD4680BDD1
:1042080080B483B000AF40F23013C2F200031B68E1
:104218007B607B68184607F10C07BD4680BC704779
:1042280080B483B000AF40F21423C2F200031B68CD
:10423800002B03D14FF000037B600DE040F2182300
:10424800C2F200031B68002B03D14FF001037B600F
:1042580002E04FF002037B607B68184607F10C0709
:10426800BD4680BC704700BF80B584B000AF7860A1
:104278007B68FB607B68002B66D0FB68DA6A40F2DB
:104288003013C2F200031B68DB6A9A425CD240F228
:104298003013C2F200031B68DB6AC3F10502FB6836
:1042A8009A61FB685969FB68DA6A13464FEA830327
:1042B8009B184FEA830340F23412C2F200029B18A3
:1042C800994202D14FF0010301E04FF00003002BA7
:1042D80032D0FB6803F104031846FDF771FD40F284
:1042E8003013C2F200031B68DA6AFB68DA62FB6803
:1042F800DA6A40F21023C2F200031B689A4206D918
:10430800FB68DA6A40F21023C2F200031A60FB6805
:10431800DA6A13464FEA83039B184FEA830340F295
:104328003412C2F200029A18FB6803F10403104623
:104338001946FDF7E7FC07E040F23013C2F200032C
:104348001B68DA6AFB68DA6207F11007BD4680BDB0
:1043580080B584B000AF78607B68FB607B68002B19
:1043680039D0FB68DA6AFB689B6C9A4233D0FB68E9
:1043780003F104031846FDF723FDFB689A6CFB68FC
:10438800DA62FB68DB6AC3F10502FB689A61FB68C5
:10439800DA6A40F21023C2F200031B689A4206D977
:1043A800FB68DA6A40F21023C2F200031A60FB6865
:1043B800DA6A13464FEA83039B184FEA830340F2F5
:1043C8003412C2F200029A18FB6803F10403104683
:1043D8001946FDF797FC07F11007BD4680BD00BFE1
:1043E80080B586B004AF4FF000037B6000F0DCFAC4
:1043F80040F25C23C2F200031B68002B1AD04FF076
:10440800020300934FF0000301934FF0000302935F
:104418004FF00003039344F2ED50C0F6000048F655
:104428002021C0F600014FF482724FF00003FEF71E
:1044380081FB78607B68002B02D1FDF78BFBFEE7E0
:104448007B68184607F10807BD4680BD80B586B071
:1044580000AFF860B9607A603B60BB68002B08D198
:104468004FF000037B61BB68002B21D1FDF772FB85
:10447800FEE74FF0280000F0F7FA78617B69002B1F
:1044880016D000F091FA7B69FA681A607B69BA68FD
:104498009A617B697A68DA617B693A681A627B6932
:1044A8003A6A5A627B6903F104031846FDF71CFC5B
:1044B8007B69184607F11807BD4680BD80B588B0EE
:1044C80000AFF860B9607A603B604FF00003FB61B1
:1044D80040F25C23C2F200031B68002B3DD0BB688E
:1044E8003B617B687B61FB68BB613B68002B25D126
:1044F800FFF796FE0346012B0FD140F25C23C2F270
:1045080000031A6807F1100310461946BA6A4FF0FB
:104518000003FDF709FEF8611FE040F25C23C2F2D8
:1045280000031A6807F11003104619464FF00002FD
:104538004FF00003FDF7F8FDF8610EE040F25C2350
:10454800C2F200031A6807F11003104619463A68C8
:104558004FF00003FDF7A4FEF861FB69184607F168
:104568002007BD4680BD00BF80B586B002AF786029
:10457800396040F25423C2F200031B68DB68DB6831
:10458800FB60FB6803F104031846FDF719FCFB68A0
:10459800DB69012B1ED1FB689A697B68D318F86820
:1045A80019463A687B6800F0BFF80346012B11D121
:1045B8004FF000030093F8684FF000017A684FF05D
:1045C8000003FFF77BFFB860BB68002B02D1FDF743
:1045D800C1FAFEE7FB685B6AF868984707F11007BD
:1045E800BD4680BD80B584B000AF786007F1080390
:1045F800184600F043F8F860BB68F868194600F000
:1046080003F800F0DBF8F1E780B584B000AF78601C
:104618003960FEF7CDFE07F10803184600F058F898
:10462800F860BB68002B21D13B68002B0AD17A685F
:10463800FB689A4206D8FEF7CDFE7868F968FFF75E
:1046480093FF17E040F25C23C2F200031A6879680E
:10465800FB68CB1A10461946FEF73CFAFEF7BAFE7D
:104668000346002B05D1FDF735FA02E0FEF7B2FE4E
:1046780000E000BF07F11007BD4680BD80B485B0DB
:1046880000AF786040F25423C2F200031B681B6835
:10469800002B14BF00230123DBB21A467B681A6083
:1046A8007B681B68002B08D140F25423C2F2000338
:1046B8001B68DB681B68FB6002E04FF00003FB60CF
:1046C800FB68184607F11407BD4680BC704700BF59
:1046D80080B584B000AF7860FEF73AFFF86040F22A
:1046E8006023C2F200031B68FA689A420CD240F2B7
:1046F8006023C2F200031B68184600F0E1F87B68EB
:104708004FF001021A6003E07B684FF000021A6064
:1047180040F26023C2F20003FA681A60FB68184688
:1047280007F11007BD4680BD80B586B000AFF860C0
:10473800B9607A603B604FF000037B61FB68BA6840
:104748005A60FB68FA681A61BA687B689A4217D897
:104758007A683B68D21AFB689B699A4203D34FF088
:1047680001037B6124E040F25823C2F200031A6877
:10477800FB6803F1040310461946FDF7E7FA17E052
:104788007A683B689A4207D2BA683B689A4203D370
:104798004FF001037B610BE040F25423C2F20003A7
:1047A8001A68FB6803F1040310461946FDF7CEFAB0
:1047B8007B69184607F11807BD4680BD80B58AB0E9
:1047C80002AF66E03B69FB61FB695B69002B05D0C2
:1047D800FB6903F104031846FDF7F2FA07F1040335
:1047E8001846FFF775FFB861BB68032B4ED801A2C6
:1047F80052F823F00D48000895480008634800085F
:104808008D480008FA68FB699B69D218FB68F8694B
:104818001146BA69FFF788FF0346012B38D1FB69B7
:104828005B6AF8699847FB69DB69012B30D1FA6844
:10483800FB699B69D3184FF000020092F8694FF0AA
:1048480000011A464FF00003FFF738FE78617B69D4
:10485800002B1DD1FDF77EF9FEE7FA68FB699A6126
:10486800FB699B69002B02D1FDF774F9FEE7FB6930
:104878009A69BB69D318F8691946BA69BB69FFF721
:1048880053FF06E0F86900F0A1F902E000BF00E07C
:1048980000BF40F25C23C2F200031A6807F1080364
:1048A800104619464FF000024FF00003FDF76CFD6B
:1048B8000346002B86D107F12007BD4680BD00BF07
:1048C80080B58AB002AF78604BE040F25423C2F260
:1048D80000031B68DB681B68FB6140F25423C2F2CB
:1048E80000031B68DB68DB68BB61BB6903F1040379
:1048F8001846FDF765FABB695B6AB8699847BB69F2
:10490800DB69012B2DD1BB699A69FB69D3187B61DF
:104918007A69FB699A4212D9BB697A695A60BB699C
:10492800BA691A6140F25423C2F200031A68BB69DB
:1049380003F1040310461946FDF708FA11E04FF099
:1049480000030093B8694FF00001FA694FF00003C3
:10495800FFF7B4FD38613B69002B02D1FDF7FAF887
:10496800FEE740F25423C2F200031B681B68002BC9
:10497800ABD140F25423C2F200031B68FB6040F243
:104988005823C2F200031A6840F25423C2F200030B
:104998001A6040F25823C2F20003FA681A6007F15D
:1049A8002007BD4680BD00BF80B500AFFDF7A2F867
:1049B80040F25C23C2F200031B68002B2BD140F2AB
:1049C8002C20C2F20000FDF76FF940F24020C2F23D
:1049D8000000FDF769F940F25423C2F2000340F2E7
:1049E8002C22C2F200021A6040F25823C2F20003DD
:1049F80040F24022C2F200021A604FF00A004FF063
:104A08000C014FF00002FDF767FA024640F25C2302
:104A1800C2F200031A60FDF783F880BD80B584B048
:104A280000AF78607B68FB60FDF764F8FB685B6942
:104A3800002B0CBF00230123DBB2BB60FDF770F82D
:104A4800BB68184607F11007BD4680BD80B485B025
:104A580000AF78607B68FB60FB681B6A184607F14B
:104A68001407BD4680BC704780B586B000AF78603B
:104A78004FF00003FB60FEF79BFC42F66C63C2F24A
:104A880001031B68002B01D100F00EF942F6706398
:104A9800C2F201031A687B681340002B40F088803B
:104AA8007B68002B12D048F62823C0F600031B8829
:104AB8007A68D3187B607B6803F00703002B05D066
:104AC8007B6823F0070303F108037B607B68002BF6
:104AD8006ED040F22403C2F200031B687A689A423F
:104AE80066D842F66463C2F201033B6142F664632E
:104AF800C2F201031B687B6104E07B693B617B694F
:104B08001B687B617B695A687B689A4203D27B6920
:104B18001B68002BF1D142F66C63C2F201031B68DB
:104B28007A699A4244D03B691A6848F62823C0F645
:104B380000031B88D318FB607B691A683B691A60FD
:104B48007B695A687B68D21A48F62823C0F60003A6
:104B58001B884FEA43039A420FD97A697B68D318B6
:104B6800BB607B695A687B68D21ABB685A607B69EC
:104B78007A685A60B86800F013F940F22403C2F268
:104B880000031A687B695B68D21A40F22403C2F2F8
:104B980000031A607B695A6842F67063C2F2010327
:104BA8001B681A437B695A607B694FF000021A60E0
:104BB800FEF710FCFB68002B01D1FBF703FDFB6837
:104BC800184607F11807BD4680BD00BF80B584B000
:104BD80000AF78607B68FB607B68002B4DD048F69F
:104BE8002823C0F600031B88C3F10003FA68D31812
:104BF800FB60FB68BB60BB685A6842F67063C2F230
:104C080001031B681340002B02D1FCF7A3FFFEE74A
:104C1800BB681B68002B02D0FCF79CFFFEE7BB6853
:104C28005A6842F67063C2F201031B681340002BF6
:104C380023D0BB681B68002B1FD1BB685A6842F69B
:104C48007063C2F201031B686FEA03031A40BB6872
:104C58005A60FEF7ADFBBB685A6840F22403C2F203
:104C680000031B68D21840F22403C2F200031A6042
:104C7800B86800F095F8FEF7ADFB07F11007BD46E0
:104C880080BD00BF80B400AF40F22403C2F200032D
:104C98001B681846BD4680BC704700BF80B400AF93
:104CA800BD4680BC704700BF80B584B000AF3B4BA9
:104CB80023F00703FB6042F66463C2F20103FA685B
:104CC8001A6042F66463C2F201034FF000025A60B0
:104CD80048F62C23C0F600031B68FA68D318BB609B
:104CE80048F62823C0F600031B88C3F10003BA68FE
:104CF800D318BB6042F66C63C2F20103BA681A604B
:104D080042F66C63C2F201031B6803F00703002B31
:104D180002D0FCF71FFFFEE742F66C63C2F2010304
:104D28001B684FF000025A6042F66C63C2F201033E
:104D38001B684FF000021A60FB687B6048F62C2362
:104D4800C0F600031A6848F62823C0F600031B883B
:104D5800D21A7B685A6042F66C63C2F201031A6881
:104D68007B681A6040F22403C2F200031A6848F60E
:104D78002823C0F600031B88D21A40F22403C2F28B
:104D880000031A6042F67063C2F201034FF000425A
:104D98001A6007F11007BD4680BD00BF6C020020F5
:104DA80080B485B000AF786042F66463C2F2010354
:104DB800FB6002E0FB681B68FB60FB681A687B68A5
:104DC8009A42F7D3FB68BB60FB685B68BA68D21885
:104DD8007B689A4208D1FB685A687B685B68D2187E
:104DE800FB685A60FB687B607B68BB607B685B68BC
:104DF800BA68D218FB681B689A421ED1FB681A6809
:104E080042F66C63C2F201031B689A420DD07B68BC
:104E18005A68FB681B685B68D2187B685A60FB6835
:104E28001B681A687B681A600BE042F66C63C2F272
:104E380001031A687B681A6003E0FB681A687B68DC
:104E48001A60FA687B689A4202D0FB687A681A602E
:104E580007F11407BD4680BC704700BF80B483B01B
:104E680000AF78604FF46D43CEF200037A6842F0E9
:104E7800BF6242F40032DA6007F10C07BD4680BC1D
:104E8800704700BF80B485B000AF78604FF0000372
:104E9800FB734FF00003BB734FF00F037B737B680A
:104EA800DB78002B45D04FF46D43CEF20003DB686E
:104EB8006FEA030303F4E0634FEA1323FB73FB7BFE
:104EC800C3F10403BB737A7BFB7B42FA03F37B7366
:104ED8007B685B781A46BB7B02FA03F3FB737B683B
:104EE8009A787B7B1340DAB2FB7B1343FB73FB7B23
:104EF8004FEA0313FB734FF46143CEF200037A6861
:104F080012789B18FA7B83F800234FF46143CEF2A2
:104F180000037A6812784FEA5212D2B27968097897
:104F280001F01F014FF0010000FA01F143F82210CF
:104F380014E04FF46143CEF200037A6812784FEA26
:104F48005212D2B27968097801F01F014FF00100BE
:104F580000FA01F102F1200243F8221007F11407C8
:104F6800BD4680BC704700BF80B483B000AF786096
:104F780039604FF46D43CEF200033A6822F0604284
:104F880022F07F0279680A439A6007F10C07BD4650
:104F980080BC704780B483B000AF02460B46FA71FC
:104FA800BB71BB79002B0CD04FF46D43CEF20003DC
:104FB8004FF46D42CEF200021169FA790A431A6180
:104FC8000DE04FF46D43CEF200034FF46D42CEF284
:104FD80000021169FA796FEA02020A401A6107F1C0
:104FE8000C07BD4680BC704780B483B000AF7860C2
:104FF8007B68042B0CD14EF21003CEF200034EF264
:105008001002CEF20002126842F004021A600BE0AD
:105018004EF21003CEF200034EF21002CEF200025E
:10502800126822F004021A6007F10C07BD4680BC22
:10503800704700BF80B500AF4FF480704FF001019A
:1050480002F076F94FF480704FF0000102F070F929
:1050580080BD00BF80B485B000AF786039604FF084
:105068000003FB604FF00003FB727B685B68FB602A
:10507800FB6823F0407323F48073FB603B681B7963
:105088004FEA03223B681B681343FA681343FB602B
:105098007B68FA685A607B689B68FB60FA684FF225
:1050A800FD73CCF2FF031340FB603B681A693B6851
:1050B800DB681A433B689B681A433B685B794FEA95
:1050C80043031343FA681343FB607B68FA689A60EA
:1050D8007B68DB6AFB60FB6823F47003FB603B685A
:1050E8001B7D03F1FF33DAB2FB7A1343FB72FB7AC1
:1050F8004FEA0353FA681343FB607B68FA68DA6285
:1051080007F11407BD4680BC704700BF80B483B068
:1051180000AF78607B684FF000021A607B684FF040
:1051280000021A717B684FF000025A717B684FF0D9
:1051380000029A607B684FF00002DA607B684FF0EB
:1051480000021A617B684FF001021A7507F10C071B
:10515800BD4680BC704700BF80B485B000AF7860A2
:105168004FF00003FB604FF40C53C4F201035B687B
:10517800FB60FA6843F2E003CFF6FC731340FB6070
:105188007B681A687B685B681A437B689B681A436C
:105198007B68DB681343FA681343FB604FF40C53D6
:1051A800C4F20103FA685A6007F11407BD4680BCCF
:1051B800704700BF80B483B000AF78607B684FF061
:1051C80000021A607B684FF000025A607B684FF05B
:1051D80000029A607B684FF00002DA6007F10C0762
:1051E800BD4680BC704700BF80B483B000AF786014
:1051F8000B46FB70FB78002B06D07B689B6843F05E
:1052080001027B689A6005E07B689B6823F00102D5
:105218007B689A6007F10C07BD4680BC704700BFE9
:1052280080B485B000AF786039604FF00003FB6050
:105238007B685B68FB60FB6823F4400323F400731E
:10524800FB60FA683B681343FB607B68FA685A6046
:1052580007F11407BD4680BC704700BF80B483B017
:1052680000AF786013460A467A803B807A887B686C
:105278005A623A887B689A6207F10C07BD4680BC7F
:10528800704700BF80B485B000AF78600B46FB70F4
:105298004FF00003FB607B685B68FB60FB6823F0F2
:1052A8001F03FB60FB78FA681343FB607B68FA68AE
:1052B8005A6007F11407BD4680BC704780B483B0BC
:1052C80000AF0346FB71FB79002B0CD04FF40C5355
:1052D800C4F201034FF40C52C4F20102526842F4C2
:1052E80000025A600BE04FF40C53C4F201034FF470
:1052F8000C52C4F20102526822F400025A6007F10B
:105308000C07BD4680BC704780B483B000AF03462D
:10531800FB71FB79002B0CD04FF40C53C4F2010342
:105328004FF40C52C4F20102526842F480025A60EF
:105338000BE04FF40C53C4F201034FF40C52C4F2C7
:105348000102526822F480025A6007F10C07BD4638
:1053580080BC704780B485B000AF7860F970BA70CF
:105368007B704FF00003FB604FF00003BB60FB78DD
:10537800092B27D97B68DB68FB60FA7813464FEA6C
:1053880043039B18A3F11E034FF0070202FA03F32D
:10539800BB60BB686FEA0303FA681340FB60797867
:1053A800FA7813464FEA43039B18A3F11E0301FA48
:1053B80003F3BB60FA68BB681343FB607B68FA6859
:1053C800DA6022E07B681B69FB60FA7813464FEAD3
:1053D80043039B184FF0070202FA03F3BB60BB6854
:1053E8006FEA0303FA681340FB607978FA7813468A
:1053F8004FEA43039B1801FA03F3BB60FA68BB68E2
:105408001343FB607B68FA681A61BB78062B27D8C0
:105418007B685B6BFB60BB7803F1FF3213464FEA96
:1054280083039B184FF01F0202FA03F3BB60BB68AB
:105438006FEA0303FA681340FB60F978BB7803F15D
:10544800FF3213464FEA83039B1801FA03F3BB604C
:10545800FA68BB681343FB607B68FA685A6351E0DB
:10546800BB780C2B27D87B681B6BFB60BA7813467C
:105478004FEA83039B18A3F123034FF01F0202FA9C
:1054880003F3BB60BB686FEA0303FA681340FB6071
:10549800F978BA7813464FEA83039B18A3F12303DC
:1054A80001FA03F3BB60FA68BB681343FB607B68CF
:1054B800FA681A6326E07B68DB6AFB60BA781346F1
:1054C8004FEA83039B18A3F141034FF01F0202FA2E
:1054D80003F3BB60BB686FEA0303FA681340FB6021
:1054E800F978BA7813464FEA83039B18A3F141036E
:1054F80001FA03F3BB60FA68BB681343FB607B687F
:10550800FA68DA6207F11407BD4680BC704700BF2D
:1055180080B483B000AF78607B689B6843F08042BA
:105528007B689A6007F10C07BD4680BC704700BFD6
:1055380080B485B000AF78604FF00003FB737B68E0
:105548009B6803F48003002B03D04FF00103FB7327
:1055580002E04FF00003FB73FB7B184607F11407CA
:10556800BD4680BC704700BF80B483B000AF786090
:105578000B46FB70FB78002B06D07B689B6843F4D6
:1055880080627B689A6005E07B689B6823F4806290
:105598007B689A6007F10C07BD4680BC704700BF66
:1055A80080B483B000AF78600B46FB70FB78002BAB
:1055B80006D07B689B6843F002027B689A6005E02E
:1055C8007B689B6823F002027B689A6007F10C07EE
:1055D800BD4680BC704700BF80B485B000AF78601E
:1055E8000B46FB704FF00003FB604FF00003BB60FD
:1055F8007B685B68FB60FB6823F46043FB60FB78B7
:1056080003F1FF33BB60BB684FEA4333FA681343C7
:10561800FB607B68FA685A6007F11407BD4680BCD6
:10562800704700BF80B483B000AF78600B46FB7052
:10563800FB78002B06D07B685B6843F400627B68CC
:105648005A6005E07B685B6823F400627B685A60F7
:1056580007F10C07BD4680BC704700BF80B483B01B
:1056680000AF78607B68DB6C9BB2184607F10C07CB
:10567800BD4680BC704700BF80B400AF42F208331B
:10568800C4F201031B681846BD4680BC704700BFC2
:1056980080B483B000AF78600B46FB70FB78002BBA
:1056A80006D07B689B6843F480727B689A6005E04B
:1056B8007B689B6823F480727B689A6007F10C070B
:1056C800BD4680BC704700BF80B483B000AF78602F
:1056D8000B46FB70FB78002B06D07B689B6843F475
:1056E80000727B689A6005E07B689B6823F400720F
:1056F8007B689A6007F10C07BD4680BC704700BF05
:1057080080B483B000AF0346FB71FB79002B0CD04B
:105718004FF40C53C4F201034FF40C52C4F20102CB
:10572800526842F400525A600BE04FF40C53C4F232
:1057380001034FF40C52C4F20102526822F40052E1
:105748005A6007F10C07BD4680BC704780B487B02B
:1057580000AF7860F970BA707B704FF000037B611E
:105768004FF000033B614FF00003FB60FB78092B0F
:1057780027D97B68DB687B61FA7813464FEA4303D5
:105788009B18A3F11E034FF0070202FA03F33B61D3
:105798003B696FEA03037A6913407B617978FA7889
:1057A80013464FEA43039B18A3F11E0301FA03F3C0
:1057B8003B617A693B6913437B617B687A69DA608C
:1057C80022E07B681B697B61FA7813464FEA430342
:1057D8009B184FF0070202FA03F33B613B696FEA3B
:1057E80003037A6913407B617978FA7813464FEAA4
:1057F80043039B1801FA03F33B617A693B6913433E
:105808007B617B687A691A617B689B6B7B617B69CA
:1058180003F440134FEA1353FB60FB68DBB26FEAF3
:105828000303DAB2BB78D318DBB203F10303DBB2AC
:105838001A4613464FEA83039B184FF01F0202FAD9
:1058480003F33B613B696FEA03037A6913407B61A9
:10585800F978FB68DBB26FEA0303DAB2BB78D318D6
:10586800DBB203F10303DBB21A4613464FEA8303A4
:105878009B1801FA03F33B617A693B6913437B6127
:105888007B687A699A6307F11C07BD4680BC70473C
:1058980080B485B000AF78600B46FB704FF0000312
:1058A800FB604FF00003BB607B689B6BFB60FB6891
:1058B80023F44013FB60FB7803F1FF33BB60BB6844
:1058C8004FEA0353FA681343FB607B68FA689A63EC
:1058D80007F11407BD4680BC704700BF80B485B08F
:1058E80000AF786013460A46FA703B804FF0000319
:1058F800FB607B68FB60FA78FB68D318FB60FB6889
:105908003A881A6007F11407BD4680BC704700BF8B
:1059180080B485B000AF786039604FF00003FB6059
:105928007B689B68FB60FB6823F47023FB60FA6864
:105938003B681343FB607B68FA689A6007F11407B9
:10594800BD4680BC704700BF80B485B000AF7860AA
:1059580039604FF00003FB607B689B68FB60FB6865
:1059680023F44013FB60FA683B681343FB607B68D1
:10597800FA689A6007F11407BD4680BC704700BFFB
:1059880080B483B000AF78607B689B6843F4800282
:105998007B689A6007F10C07BD4680BC704700BF62
:1059A80080B485B000AF78604FF00003FB737B686C
:1059B8009B6803F48003002B03D04FF00103FB73B3
:1059C80002E04FF00003FB73FB7B184607F1140756
:1059D800BD4680BC704700BF80B483B000AF78601C
:1059E8000B46FB70FB78002B06D07B685B6843F4A2
:1059F80080627B685A6005E07B685B6823F480629C
:105A08007B685A6007F10C07BD4680BC704700BF31
:105A180080B483B000AF78600B46FB70FB78002B36
:105A280006D07B685B6843F480527B685A6005E067
:105A38007B685B6823F480527B685A6007F10C0727
:105A4800BD4680BC704700BF80B485B000AF7860A9
:105A58000B46FB704FF00003FB607B68FB60FA7835
:105A6800FB68D31803F12803FB60FB681B689BB233
:105A7800184607F11407BD4680BC704780B485B04E
:105A880000AF786013460A467A807B704FF00003B7
:105A9800FB607B88DBB2FB60FB684FF0010202FA17
:105AA80003F3FB607B78002B06D07B685A68FB68A1
:105AB8001A437B685A6007E07B685A68FB686FEA9C
:105AC80003031A407B685A6007F11407BD4680BC7F
